{
  "_format": "hh-sol-artifact-1",
  "contractName": "MultiPairAMM",
  "sourceName": "contracts/MultiPairAMM.sol",
  "abi": [
    {
      "inputs": [
        {
          "internalType": "address",
          "name": "_ausd",
          "type": "address"
        }
      ],
      "stateMutability": "nonpayable",
      "type": "constructor"
    },
    {
      "anonymous": false,
      "inputs": [
        {
          "indexed": true,
          "internalType": "address",
          "name": "token",
          "type": "address"
        },
        {
          "indexed": false,
          "internalType": "uint256",
          "name": "ausdAmount",
          "type": "uint256"
        },
        {
          "indexed": false,
          "internalType": "uint256",
          "name": "tokenAmount",
          "type": "uint256"
        }
      ],
      "name": "LiquidityAdded",
      "type": "event"
    },
    {
      "anonymous": false,
      "inputs": [
        {
          "indexed": true,
          "internalType": "address",
          "name": "tokenIn",
          "type": "address"
        },
        {
          "indexed": false,
          "internalType": "uint256",
          "name": "amountIn",
          "type": "uint256"
        },
        {
          "indexed": false,
          "internalType": "uint256",
          "name": "amountOut",
          "type": "uint256"
        },
        {
          "indexed": true,
          "internalType": "address",
          "name": "to",
          "type": "address"
        }
      ],
      "name": "Swapped",
      "type": "event"
    },
    {
      "inputs": [],
      "name": "AUSD",
      "outputs": [
        {
          "internalType": "address",
          "name": "",
          "type": "address"
        }
      ],
      "stateMutability": "view",
      "type": "function"
    },
    {
      "inputs": [],
      "name": "FEE_BPS",
      "outputs": [
        {
          "internalType": "uint16",
          "name": "",
          "type": "uint16"
        }
      ],
      "stateMutability": "view",
      "type": "function"
    },
    {
      "inputs": [
        {
          "internalType": "address",
          "name": "token",
          "type": "address"
        },
        {
          "internalType": "uint256",
          "name": "ausdAmount",
          "type": "uint256"
        },
        {
          "internalType": "uint256",
          "name": "tokenAmount",
          "type": "uint256"
        }
      ],
      "name": "addLiquidity",
      "outputs": [],
      "stateMutability": "nonpayable",
      "type": "function"
    },
    {
      "inputs": [
        {
          "internalType": "uint256",
          "name": "amountIn",
          "type": "uint256"
        },
        {
          "internalType": "uint256",
          "name": "reserveIn",
          "type": "uint256"
        },
        {
          "internalType": "uint256",
          "name": "reserveOut",
          "type": "uint256"
        }
      ],
      "name": "getAmountOut",
      "outputs": [
        {
          "internalType": "uint256",
          "name": "",
          "type": "uint256"
        }
      ],
      "stateMutability": "pure",
      "type": "function"
    },
    {
      "inputs": [
        {
          "internalType": "uint256",
          "name": "amountIn",
          "type": "uint256"
        },
        {
          "internalType": "address[]",
          "name": "path",
          "type": "address[]"
        }
      ],
      "name": "getAmountsOut",
      "outputs": [
        {
          "internalType": "uint256[]",
          "name": "amounts",
          "type": "uint256[]"
        }
      ],
      "stateMutability": "view",
      "type": "function"
    },
    {
      "inputs": [
        {
          "internalType": "address",
          "name": "",
          "type": "address"
        }
      ],
      "name": "reserves",
      "outputs": [
        {
          "internalType": "uint256",
          "name": "ausd",
          "type": "uint256"
        },
        {
          "internalType": "uint256",
          "name": "token",
          "type": "uint256"
        }
      ],
      "stateMutability": "view",
      "type": "function"
    },
    {
      "inputs": [
        {
          "internalType": "uint256",
          "name": "amountIn",
          "type": "uint256"
        },
        {
          "internalType": "uint256",
          "name": "amountOutMin",
          "type": "uint256"
        },
        {
          "internalType": "address[]",
          "name": "path",
          "type": "address[]"
        },
        {
          "internalType": "address",
          "name": "to",
          "type": "address"
        },
        {
          "internalType": "uint256",
          "name": "",
          "type": "uint256"
        }
      ],
      "name": "swapExactTokensForTokens",
      "outputs": [
        {
          "internalType": "uint256[]",
          "name": "amounts",
          "type": "uint256[]"
        }
      ],
      "stateMutability": "nonpayable",
      "type": "function"
    }
  ],
  "bytecode": "0x60a0346100c257601f610cb038819003918201601f19168301916001600160401b038311848410176100c6578084926020946040528339810103126100c257516001600160a01b0381168082036100c2571561008c57608052604051610bd590816100db82396080518181816102160152818161043501528181610587015281816107850152610a8f0152f35b60405162461bcd60e51b815260206004820152600e60248201526d1053534e881e995c9bc8185554d160921b6044820152606490fd5b5f80fd5b634e487b7160e01b5f52604160045260245ffdfe604060808152600480361015610013575f80fd5b5f3560e01c908163054d50d4146107b45781632fd7d1fd1461077157816338ed17391461045d57816355776b771461018f578163bf333f2c14610174578163d06ca61f146100ac575063d66bd5241461006a575f80fd5b346100a85760203660031901126100a8576001600160a01b0361008b610812565b165f525f602052805f206001815491015482519182526020820152f35b5f80fd5b82346100a857806003193601126100a85781359060243567ffffffffffffffff81116100a8576100df90369085016107e1565b936100ec60028614610944565b8415610161576100fb82610989565b9460011015610161575061012161015d9461011b60206101499401610989565b90610a85565b9083519461012e8661099d565b600286528436602088013780610143876109ef565b52610884565b61015283610a10565b525191829182610828565b0390f35b603290634e487b7160e01b5f525260245ffd5b82346100a8575f3660031901126100a85760209051601e8152f35b9050346100a85760603660031901126100a8576101aa610812565b6001600160a01b039290831691602435906044359084151580610431575b156103f057821515806103e7575b156103ae5783516323b872dd60e01b80825233838301908152306020828101919091526040820187905298919291899183919082905f90829060600103927f0000000000000000000000000000000000000000000000000000000000000000165af19081156103a4575f91610387575b501561034e578451908152338282019081523060208201526040810184905287908290819060600103815f8a5af1908115610344575f91610317575b50156102dd575083947fac1d76749e5447b7b16f5ab61447e1bd502f3bb4807af3b28e620d1700a6ee45945f525f81526001845f206102c2858254610863565b8155016102d0838254610863565b90558351928352820152a2005b835162461bcd60e51b815290810186905260146024820152731053534e881d1bdad95b881a5b8819985a5b195960621b6044820152606490fd5b6103379150873d891161033d575b61032f81836109cd565b810190610a20565b5f610282565b503d610325565b85513d5f823e3d90fd5b845162461bcd60e51b815280830188905260136024820152721053534e88185554d1081a5b8819985a5b1959606a1b6044820152606490fd5b61039e9150883d8a1161033d5761032f81836109cd565b5f610246565b86513d5f823e3d90fd5b606490602085519162461bcd60e51b83528201526013602482015272414d4d3a207a65726f206c697175696469747960681b6044820152fd5b508115156101d6565b61042d90845191829162461bcd60e51b8352820160609060208152600e60208201526d20a6a69d103130b2103a37b5b2b760911b60408201520190565b0390fd5b50857f0000000000000000000000000000000000000000000000000000000000000000168514156101c8565b82346100a85760a03660031901126100a85760449060248335833567ffffffffffffffff81116100a85761049490369087016107e1565b9290946064359160018060a01b038084168094036100a8576104b860028714610944565b851561075e576104c788610989565b956001101561075e576104dd6020809901610989565b92851561072f576104f86104f18589610a85565b9088610884565b96833588106106fe5788516323b872dd60e01b815233818d019081523060208201526040810189905291841695918b908290819060600103815f8a5af19081156106a5575f916106e1575b50156106af57821692885163a9059cbb60e01b8152868c82015288828201528a8184815f895af19081156106a5575f91610688575b5015610656575061015d9950507f0000000000000000000000000000000000000000000000000000000000000000168203610629575f525f86526001855f206105c2858254610863565b8155016105d0858254610a38565b90555b7f50994f8bcf54474cf3e35793e3537d1f44ec39d92f19a3d7a01b36723b886fc08580518581528689820152a38280519461060d8661099d565b60028652369086013761061f846109ef565b5261015283610a10565b50805f525f8652845f2060018101610642858254610863565b905561064f858254610a38565b90556105d3565b6e1053534e881bdd5d0819985a5b1959608a1b606492600f8d938d8d519562461bcd60e51b8752860152840152820152fd5b61069f91508b3d8d1161033d5761032f81836109cd565b8c610578565b8a513d5f823e3d90fd5b885162461bcd60e51b8152808c018b9052600e818601526d1053534e881a5b8819985a5b195960921b81840152606490fd5b6106f891508b3d8d1161033d5761032f81836109cd565b8c610543565b885162461bcd60e51b8152808c018b9052600d818601526c414d4d3a20736c69707061676560981b81840152606490fd5b896b20a6a69d103d32b9379034b760a11b606492600c868d8d519562461bcd60e51b8752860152840152820152fd5b50634e487b7160e01b5f90815260328952fd5b82346100a8575f3660031901126100a857517f00000000000000000000000000000000000000000000000000000000000000006001600160a01b03168152602090f35b82346100a85760603660031901126100a8576107da602092604435906024359035610884565b9051908152f35b9181601f840112156100a85782359167ffffffffffffffff83116100a8576020808501948460051b0101116100a857565b600435906001600160a01b03821682036100a857565b60209060206040818301928281528551809452019301915f5b82811061084f575050505090565b835185529381019392810192600101610841565b9190820180921161087057565b634e487b7160e01b5f52601160045260245ffd5b80159081158061093b575b80610932575b156108f9576126f2908181029281840483141715610870578402029281840414811517156108705761271091828102928184041490151715610870576108da91610863565b9081156108e5570490565b634e487b7160e01b5f52601260045260245ffd5b60405162461bcd60e51b81526020600482015260116024820152701053534e881a5b9cdd59999a58da595b9d607a1b6044820152606490fd5b50831515610895565b5082151561088f565b1561094b57565b60405162461bcd60e51b8152602060048201526016602482015275414d4d3a20322d746f6b656e2070617468206f6e6c7960501b6044820152606490fd5b356001600160a01b03811681036100a85790565b6060810190811067ffffffffffffffff8211176109b957604052565b634e487b7160e01b5f52604160045260245ffd5b90601f8019910116810190811067ffffffffffffffff8211176109b957604052565b8051156109fc5760200190565b634e487b7160e01b5f52603260045260245ffd5b8051600110156109fc5760400190565b908160209103126100a8575180151581036100a85790565b9190820391821161087057565b15610a4c57565b60405162461bcd60e51b8152602060048201526011602482015270414d4d3a206e6f206c697175696469747960781b6044820152606490fd5b6001600160a01b037f000000000000000000000000000000000000000000000000000000000000000081169290918216808403610b2d575016908114610af8575f525f60205260405f2090600182549283151580610aec575b610ae790610a45565b015490565b50808201541515610ade565b60405162461bcd60e51b815260206004820152600d60248201526c0829a9a7440c4c2c840e0c2e8d609b1b6044820152606490fd5b92911614610b6b5760405162461bcd60e51b815260206004820152600e60248201526d20a6a69d103130b2103a37b5b2b760911b6044820152606490fd5b5f525f60205260405f2090600182549283151580610b93575b610b8d90610a45565b01549190565b50808201541515610b8456fea264697066735822122001f7c5555b1a3a1f88bc30e1b38370b224966abe854b88231d0fada5b2bd215f64736f6c63430008180033",
  "linkReferences": {},
  "deployedLinkReferences": {}
}