{
  "_format": "hh-sol-artifact-1",
  "contractName": "VaultManager",
  "sourceName": "contracts/VaultManager.sol",
  "abi": [
    {
      "inputs": [
        {
          "internalType": "address",
          "name": "_ausd",
          "type": "address"
        }
      ],
      "stateMutability": "nonpayable",
      "type": "constructor"
    },
    {
      "anonymous": false,
      "inputs": [
        {
          "indexed": true,
          "internalType": "bytes32",
          "name": "vaultId",
          "type": "bytes32"
        },
        {
          "indexed": false,
          "internalType": "address[]",
          "name": "tokens",
          "type": "address[]"
        }
      ],
      "name": "AllowlistAdded",
      "type": "event"
    },
    {
      "anonymous": false,
      "inputs": [
        {
          "indexed": true,
          "internalType": "bytes32",
          "name": "vaultId",
          "type": "bytes32"
        },
        {
          "indexed": false,
          "internalType": "address[]",
          "name": "tokens",
          "type": "address[]"
        }
      ],
      "name": "AllowlistRemoved",
      "type": "event"
    },
    {
      "anonymous": false,
      "inputs": [
        {
          "indexed": true,
          "internalType": "address",
          "name": "dex",
          "type": "address"
        }
      ],
      "name": "DexSet",
      "type": "event"
    },
    {
      "anonymous": false,
      "inputs": [
        {
          "indexed": true,
          "internalType": "address",
          "name": "follower",
          "type": "address"
        },
        {
          "indexed": true,
          "internalType": "address",
          "name": "keeper",
          "type": "address"
        }
      ],
      "name": "KeeperSet",
      "type": "event"
    },
    {
      "anonymous": false,
      "inputs": [
        {
          "indexed": true,
          "internalType": "address",
          "name": "oracle",
          "type": "address"
        }
      ],
      "name": "OracleSet",
      "type": "event"
    },
    {
      "anonymous": false,
      "inputs": [
        {
          "indexed": true,
          "internalType": "bytes32",
          "name": "positionId",
          "type": "bytes32"
        },
        {
          "indexed": true,
          "internalType": "bytes32",
          "name": "vaultId",
          "type": "bytes32"
        },
        {
          "indexed": false,
          "internalType": "int256",
          "name": "pnl",
          "type": "int256"
        },
        {
          "indexed": false,
          "internalType": "uint256",
          "name": "exitPrice",
          "type": "uint256"
        }
      ],
      "name": "PositionClosed",
      "type": "event"
    },
    {
      "anonymous": false,
      "inputs": [
        {
          "indexed": true,
          "internalType": "bytes32",
          "name": "positionId",
          "type": "bytes32"
        },
        {
          "indexed": true,
          "internalType": "bytes32",
          "name": "vaultId",
          "type": "bytes32"
        },
        {
          "indexed": false,
          "internalType": "address",
          "name": "token",
          "type": "address"
        },
        {
          "indexed": false,
          "internalType": "uint256",
          "name": "ausdAllocated",
          "type": "uint256"
        },
        {
          "indexed": false,
          "internalType": "uint256",
          "name": "entryPrice",
          "type": "uint256"
        }
      ],
      "name": "PositionOpened",
      "type": "event"
    },
    {
      "anonymous": false,
      "inputs": [
        {
          "indexed": true,
          "internalType": "address",
          "name": "token",
          "type": "address"
        },
        {
          "indexed": false,
          "internalType": "uint256",
          "name": "price",
          "type": "uint256"
        }
      ],
      "name": "PriceUpdated",
      "type": "event"
    },
    {
      "anonymous": false,
      "inputs": [
        {
          "indexed": true,
          "internalType": "uint256",
          "name": "requestId",
          "type": "uint256"
        },
        {
          "indexed": true,
          "internalType": "bytes32",
          "name": "vaultId",
          "type": "bytes32"
        },
        {
          "indexed": false,
          "internalType": "uint8",
          "name": "score",
          "type": "uint8"
        },
        {
          "indexed": false,
          "internalType": "bool",
          "name": "willExecute",
          "type": "bool"
        }
      ],
      "name": "StrategistResponse",
      "type": "event"
    },
    {
      "anonymous": false,
      "inputs": [
        {
          "indexed": true,
          "internalType": "address",
          "name": "mainnetToken",
          "type": "address"
        },
        {
          "indexed": true,
          "internalType": "address",
          "name": "swapToken",
          "type": "address"
        }
      ],
      "name": "TokenMapped",
      "type": "event"
    },
    {
      "anonymous": false,
      "inputs": [
        {
          "indexed": true,
          "internalType": "bytes32",
          "name": "vaultId",
          "type": "bytes32"
        },
        {
          "indexed": true,
          "internalType": "address",
          "name": "token",
          "type": "address"
        },
        {
          "indexed": false,
          "internalType": "uint256",
          "name": "ausdAllocated",
          "type": "uint256"
        },
        {
          "indexed": false,
          "internalType": "uint8",
          "name": "copyScore",
          "type": "uint8"
        }
      ],
      "name": "TradeCopied",
      "type": "event"
    },
    {
      "anonymous": false,
      "inputs": [
        {
          "indexed": true,
          "internalType": "bytes32",
          "name": "vaultId",
          "type": "bytes32"
        },
        {
          "indexed": false,
          "internalType": "string",
          "name": "reason",
          "type": "string"
        }
      ],
      "name": "TradeSkipped",
      "type": "event"
    },
    {
      "anonymous": false,
      "inputs": [
        {
          "indexed": true,
          "internalType": "bytes32",
          "name": "vaultId",
          "type": "bytes32"
        }
      ],
      "name": "VaultClosed",
      "type": "event"
    },
    {
      "anonymous": false,
      "inputs": [
        {
          "indexed": true,
          "internalType": "address",
          "name": "follower",
          "type": "address"
        },
        {
          "indexed": true,
          "internalType": "address",
          "name": "leader",
          "type": "address"
        },
        {
          "indexed": true,
          "internalType": "bytes32",
          "name": "vaultId",
          "type": "bytes32"
        },
        {
          "indexed": false,
          "internalType": "uint256",
          "name": "amount",
          "type": "uint256"
        }
      ],
      "name": "VaultCreated",
      "type": "event"
    },
    {
      "anonymous": false,
      "inputs": [
        {
          "indexed": true,
          "internalType": "bytes32",
          "name": "vaultId",
          "type": "bytes32"
        },
        {
          "indexed": false,
          "internalType": "uint256",
          "name": "amount",
          "type": "uint256"
        }
      ],
      "name": "VaultDeposited",
      "type": "event"
    },
    {
      "anonymous": false,
      "inputs": [
        {
          "indexed": true,
          "internalType": "bytes32",
          "name": "vaultId",
          "type": "bytes32"
        }
      ],
      "name": "VaultPaused",
      "type": "event"
    },
    {
      "anonymous": false,
      "inputs": [
        {
          "indexed": true,
          "internalType": "address",
          "name": "follower",
          "type": "address"
        },
        {
          "indexed": true,
          "internalType": "address",
          "name": "leader",
          "type": "address"
        },
        {
          "indexed": true,
          "internalType": "bytes32",
          "name": "vaultId",
          "type": "bytes32"
        },
        {
          "indexed": false,
          "internalType": "uint256",
          "name": "amount",
          "type": "uint256"
        }
      ],
      "name": "VaultReopened",
      "type": "event"
    },
    {
      "anonymous": false,
      "inputs": [
        {
          "indexed": true,
          "internalType": "bytes32",
          "name": "vaultId",
          "type": "bytes32"
        }
      ],
      "name": "VaultResumed",
      "type": "event"
    },
    {
      "anonymous": false,
      "inputs": [
        {
          "indexed": true,
          "internalType": "bytes32",
          "name": "vaultId",
          "type": "bytes32"
        },
        {
          "indexed": false,
          "internalType": "uint256",
          "name": "amount",
          "type": "uint256"
        }
      ],
      "name": "VaultWithdrawn",
      "type": "event"
    },
    {
      "anonymous": false,
      "inputs": [
        {
          "indexed": true,
          "internalType": "uint256",
          "name": "requestId",
          "type": "uint256"
        },
        {
          "indexed": true,
          "internalType": "bytes32",
          "name": "vaultId",
          "type": "bytes32"
        }
      ],
      "name": "WatcherRequested",
      "type": "event"
    },
    {
      "anonymous": false,
      "inputs": [
        {
          "indexed": true,
          "internalType": "uint256",
          "name": "requestId",
          "type": "uint256"
        },
        {
          "indexed": true,
          "internalType": "bytes32",
          "name": "vaultId",
          "type": "bytes32"
        },
        {
          "indexed": false,
          "internalType": "address",
          "name": "tokenOut",
          "type": "address"
        },
        {
          "indexed": false,
          "internalType": "uint256",
          "name": "usdValue",
          "type": "uint256"
        },
        {
          "indexed": false,
          "internalType": "uint256",
          "name": "tradeTimestamp",
          "type": "uint256"
        }
      ],
      "name": "WatcherResponse",
      "type": "event"
    },
    {
      "inputs": [],
      "name": "AUSD",
      "outputs": [
        {
          "internalType": "address",
          "name": "",
          "type": "address"
        }
      ],
      "stateMutability": "view",
      "type": "function"
    },
    {
      "inputs": [],
      "name": "MAX_SLIPPAGE_BPS",
      "outputs": [
        {
          "internalType": "uint16",
          "name": "",
          "type": "uint16"
        }
      ],
      "stateMutability": "view",
      "type": "function"
    },
    {
      "inputs": [],
      "name": "MAX_TRADE_AGE",
      "outputs": [
        {
          "internalType": "uint256",
          "name": "",
          "type": "uint256"
        }
      ],
      "stateMutability": "view",
      "type": "function"
    },
    {
      "inputs": [],
      "name": "MIN_COPY_SCORE",
      "outputs": [
        {
          "internalType": "uint8",
          "name": "",
          "type": "uint8"
        }
      ],
      "stateMutability": "view",
      "type": "function"
    },
    {
      "inputs": [],
      "name": "MIN_SLIPPAGE_BPS",
      "outputs": [
        {
          "internalType": "uint16",
          "name": "",
          "type": "uint16"
        }
      ],
      "stateMutability": "view",
      "type": "function"
    },
    {
      "inputs": [],
      "name": "MIN_TRADE_AUSD",
      "outputs": [
        {
          "internalType": "uint256",
          "name": "",
          "type": "uint256"
        }
      ],
      "stateMutability": "view",
      "type": "function"
    },
    {
      "inputs": [
        {
          "internalType": "address",
          "name": "leader",
          "type": "address"
        },
        {
          "internalType": "address[]",
          "name": "tokens",
          "type": "address[]"
        }
      ],
      "name": "addToAllowlist",
      "outputs": [],
      "stateMutability": "nonpayable",
      "type": "function"
    },
    {
      "inputs": [
        {
          "internalType": "bytes32",
          "name": "positionId",
          "type": "bytes32"
        }
      ],
      "name": "closePosition",
      "outputs": [],
      "stateMutability": "nonpayable",
      "type": "function"
    },
    {
      "inputs": [
        {
          "internalType": "address",
          "name": "leader",
          "type": "address"
        },
        {
          "internalType": "uint256",
          "name": "amount",
          "type": "uint256"
        },
        {
          "internalType": "uint8",
          "name": "riskLevel",
          "type": "uint8"
        },
        {
          "internalType": "uint8",
          "name": "maxPerTradePct",
          "type": "uint8"
        },
        {
          "internalType": "address[]",
          "name": "allowlist",
          "type": "address[]"
        },
        {
          "components": [
            {
              "internalType": "uint16",
              "name": "slippageBps",
              "type": "uint16"
            },
            {
              "internalType": "uint256",
              "name": "minLeaderTradeUsd",
              "type": "uint256"
            },
            {
              "internalType": "uint256",
              "name": "maxLeaderTradeUsd",
              "type": "uint256"
            },
            {
              "internalType": "uint256",
              "name": "minAllocUsd",
              "type": "uint256"
            },
            {
              "internalType": "uint256",
              "name": "maxAllocUsd",
              "type": "uint256"
            }
          ],
          "internalType": "struct VaultManager.VaultLimits",
          "name": "limits",
          "type": "tuple"
        }
      ],
      "name": "createVault",
      "outputs": [],
      "stateMutability": "nonpayable",
      "type": "function"
    },
    {
      "inputs": [
        {
          "internalType": "address",
          "name": "leader",
          "type": "address"
        },
        {
          "internalType": "uint256",
          "name": "amount",
          "type": "uint256"
        }
      ],
      "name": "deposit",
      "outputs": [],
      "stateMutability": "nonpayable",
      "type": "function"
    },
    {
      "inputs": [],
      "name": "dex",
      "outputs": [
        {
          "internalType": "address",
          "name": "",
          "type": "address"
        }
      ],
      "stateMutability": "view",
      "type": "function"
    },
    {
      "inputs": [
        {
          "internalType": "address",
          "name": "follower",
          "type": "address"
        },
        {
          "internalType": "address",
          "name": "leader",
          "type": "address"
        },
        {
          "internalType": "address",
          "name": "tokenOut",
          "type": "address"
        },
        {
          "internalType": "uint256",
          "name": "usdValue",
          "type": "uint256"
        },
        {
          "internalType": "uint256",
          "name": "tradePrice",
          "type": "uint256"
        },
        {
          "internalType": "uint256",
          "name": "tradeTimestamp",
          "type": "uint256"
        },
        {
          "internalType": "uint8",
          "name": "score",
          "type": "uint8"
        }
      ],
      "name": "executeCopyTrade",
      "outputs": [],
      "stateMutability": "nonpayable",
      "type": "function"
    },
    {
      "inputs": [
        {
          "internalType": "address",
          "name": "",
          "type": "address"
        },
        {
          "internalType": "uint256",
          "name": "",
          "type": "uint256"
        }
      ],
      "name": "followerVaults",
      "outputs": [
        {
          "internalType": "bytes32",
          "name": "",
          "type": "bytes32"
        }
      ],
      "stateMutability": "view",
      "type": "function"
    },
    {
      "inputs": [
        {
          "internalType": "address",
          "name": "follower",
          "type": "address"
        },
        {
          "internalType": "address",
          "name": "leader",
          "type": "address"
        }
      ],
      "name": "getAllowlist",
      "outputs": [
        {
          "internalType": "address[]",
          "name": "",
          "type": "address[]"
        }
      ],
      "stateMutability": "view",
      "type": "function"
    },
    {
      "inputs": [
        {
          "internalType": "address",
          "name": "follower",
          "type": "address"
        }
      ],
      "name": "getFollowerVaults",
      "outputs": [
        {
          "internalType": "bytes32[]",
          "name": "",
          "type": "bytes32[]"
        }
      ],
      "stateMutability": "view",
      "type": "function"
    },
    {
      "inputs": [
        {
          "internalType": "address",
          "name": "follower",
          "type": "address"
        },
        {
          "internalType": "address",
          "name": "leader",
          "type": "address"
        }
      ],
      "name": "getFreeBalance",
      "outputs": [
        {
          "internalType": "uint256",
          "name": "",
          "type": "uint256"
        }
      ],
      "stateMutability": "view",
      "type": "function"
    },
    {
      "inputs": [
        {
          "internalType": "address",
          "name": "follower",
          "type": "address"
        },
        {
          "internalType": "address",
          "name": "leader",
          "type": "address"
        }
      ],
      "name": "getOpenPositions",
      "outputs": [
        {
          "internalType": "bytes32[]",
          "name": "openIds",
          "type": "bytes32[]"
        }
      ],
      "stateMutability": "view",
      "type": "function"
    },
    {
      "inputs": [
        {
          "internalType": "address",
          "name": "follower",
          "type": "address"
        },
        {
          "internalType": "address",
          "name": "leader",
          "type": "address"
        }
      ],
      "name": "getUnrealizedPnL",
      "outputs": [
        {
          "internalType": "int256",
          "name": "totalPnl",
          "type": "int256"
        }
      ],
      "stateMutability": "view",
      "type": "function"
    },
    {
      "inputs": [
        {
          "internalType": "address",
          "name": "follower",
          "type": "address"
        },
        {
          "internalType": "address",
          "name": "leader",
          "type": "address"
        }
      ],
      "name": "getVault",
      "outputs": [
        {
          "components": [
            {
              "internalType": "address",
              "name": "follower",
              "type": "address"
            },
            {
              "internalType": "address",
              "name": "leader",
              "type": "address"
            },
            {
              "internalType": "uint256",
              "name": "ausdLocked",
              "type": "uint256"
            },
            {
              "internalType": "uint256",
              "name": "ausdAllocated",
              "type": "uint256"
            },
            {
              "internalType": "uint8",
              "name": "riskLevel",
              "type": "uint8"
            },
            {
              "internalType": "uint8",
              "name": "maxPerTradePct",
              "type": "uint8"
            },
            {
              "internalType": "address[]",
              "name": "allowlist",
              "type": "address[]"
            },
            {
              "internalType": "enum VaultManager.VaultStatus",
              "name": "status",
              "type": "uint8"
            },
            {
              "components": [
                {
                  "internalType": "uint16",
                  "name": "slippageBps",
                  "type": "uint16"
                },
                {
                  "internalType": "uint256",
                  "name": "minLeaderTradeUsd",
                  "type": "uint256"
                },
                {
                  "internalType": "uint256",
                  "name": "maxLeaderTradeUsd",
                  "type": "uint256"
                },
                {
                  "internalType": "uint256",
                  "name": "minAllocUsd",
                  "type": "uint256"
                },
                {
                  "internalType": "uint256",
                  "name": "maxAllocUsd",
                  "type": "uint256"
                }
              ],
              "internalType": "struct VaultManager.VaultLimits",
              "name": "limits",
              "type": "tuple"
            }
          ],
          "internalType": "struct VaultManager.VaultConfig",
          "name": "",
          "type": "tuple"
        }
      ],
      "stateMutability": "view",
      "type": "function"
    },
    {
      "inputs": [
        {
          "internalType": "address",
          "name": "",
          "type": "address"
        }
      ],
      "name": "keeperOf",
      "outputs": [
        {
          "internalType": "address",
          "name": "",
          "type": "address"
        }
      ],
      "stateMutability": "view",
      "type": "function"
    },
    {
      "inputs": [
        {
          "internalType": "address",
          "name": "",
          "type": "address"
        }
      ],
      "name": "latestPrice",
      "outputs": [
        {
          "internalType": "uint256",
          "name": "",
          "type": "uint256"
        }
      ],
      "stateMutability": "view",
      "type": "function"
    },
    {
      "inputs": [],
      "name": "oracle",
      "outputs": [
        {
          "internalType": "address",
          "name": "",
          "type": "address"
        }
      ],
      "stateMutability": "view",
      "type": "function"
    },
    {
      "inputs": [],
      "name": "owner",
      "outputs": [
        {
          "internalType": "address",
          "name": "",
          "type": "address"
        }
      ],
      "stateMutability": "view",
      "type": "function"
    },
    {
      "inputs": [
        {
          "internalType": "address",
          "name": "leader",
          "type": "address"
        }
      ],
      "name": "pauseVault",
      "outputs": [],
      "stateMutability": "nonpayable",
      "type": "function"
    },
    {
      "inputs": [
        {
          "internalType": "bytes32",
          "name": "",
          "type": "bytes32"
        }
      ],
      "name": "positions",
      "outputs": [
        {
          "internalType": "address",
          "name": "follower",
          "type": "address"
        },
        {
          "internalType": "address",
          "name": "leader",
          "type": "address"
        },
        {
          "internalType": "bytes32",
          "name": "vaultId",
          "type": "bytes32"
        },
        {
          "internalType": "address",
          "name": "token",
          "type": "address"
        },
        {
          "internalType": "uint256",
          "name": "ausdAllocated",
          "type": "uint256"
        },
        {
          "internalType": "uint256",
          "name": "tokenAmount",
          "type": "uint256"
        },
        {
          "internalType": "uint256",
          "name": "entryPrice",
          "type": "uint256"
        },
        {
          "internalType": "uint256",
          "name": "exitPrice",
          "type": "uint256"
        },
        {
          "internalType": "int256",
          "name": "pnl",
          "type": "int256"
        },
        {
          "internalType": "enum VaultManager.PositionStatus",
          "name": "status",
          "type": "uint8"
        },
        {
          "internalType": "uint256",
          "name": "openedAt",
          "type": "uint256"
        },
        {
          "internalType": "uint256",
          "name": "closedAt",
          "type": "uint256"
        }
      ],
      "stateMutability": "view",
      "type": "function"
    },
    {
      "inputs": [
        {
          "internalType": "address",
          "name": "leader",
          "type": "address"
        },
        {
          "internalType": "address[]",
          "name": "tokens",
          "type": "address[]"
        }
      ],
      "name": "removeFromAllowlist",
      "outputs": [],
      "stateMutability": "nonpayable",
      "type": "function"
    },
    {
      "inputs": [
        {
          "internalType": "address",
          "name": "leader",
          "type": "address"
        },
        {
          "internalType": "uint256",
          "name": "amount",
          "type": "uint256"
        },
        {
          "internalType": "uint8",
          "name": "riskLevel",
          "type": "uint8"
        },
        {
          "internalType": "uint8",
          "name": "maxPerTradePct",
          "type": "uint8"
        },
        {
          "internalType": "address[]",
          "name": "allowlist",
          "type": "address[]"
        },
        {
          "components": [
            {
              "internalType": "uint16",
              "name": "slippageBps",
              "type": "uint16"
            },
            {
              "internalType": "uint256",
              "name": "minLeaderTradeUsd",
              "type": "uint256"
            },
            {
              "internalType": "uint256",
              "name": "maxLeaderTradeUsd",
              "type": "uint256"
            },
            {
              "internalType": "uint256",
              "name": "minAllocUsd",
              "type": "uint256"
            },
            {
              "internalType": "uint256",
              "name": "maxAllocUsd",
              "type": "uint256"
            }
          ],
          "internalType": "struct VaultManager.VaultLimits",
          "name": "limits",
          "type": "tuple"
        }
      ],
      "name": "reopenVault",
      "outputs": [],
      "stateMutability": "nonpayable",
      "type": "function"
    },
    {
      "inputs": [
        {
          "internalType": "address",
          "name": "leader",
          "type": "address"
        }
      ],
      "name": "resumeVault",
      "outputs": [],
      "stateMutability": "nonpayable",
      "type": "function"
    },
    {
      "inputs": [
        {
          "internalType": "address",
          "name": "_dex",
          "type": "address"
        }
      ],
      "name": "setDex",
      "outputs": [],
      "stateMutability": "nonpayable",
      "type": "function"
    },
    {
      "inputs": [
        {
          "internalType": "address",
          "name": "keeper",
          "type": "address"
        }
      ],
      "name": "setKeeper",
      "outputs": [],
      "stateMutability": "nonpayable",
      "type": "function"
    },
    {
      "inputs": [
        {
          "internalType": "address",
          "name": "_oracle",
          "type": "address"
        }
      ],
      "name": "setOracle",
      "outputs": [],
      "stateMutability": "nonpayable",
      "type": "function"
    },
    {
      "inputs": [
        {
          "internalType": "address",
          "name": "token",
          "type": "address"
        },
        {
          "internalType": "uint256",
          "name": "price",
          "type": "uint256"
        }
      ],
      "name": "setPrice",
      "outputs": [],
      "stateMutability": "nonpayable",
      "type": "function"
    },
    {
      "inputs": [
        {
          "internalType": "address",
          "name": "mainnetToken",
          "type": "address"
        },
        {
          "internalType": "address",
          "name": "swapToken",
          "type": "address"
        }
      ],
      "name": "setTokenMap",
      "outputs": [],
      "stateMutability": "nonpayable",
      "type": "function"
    },
    {
      "inputs": [
        {
          "internalType": "address",
          "name": "",
          "type": "address"
        }
      ],
      "name": "tokenMap",
      "outputs": [
        {
          "internalType": "address",
          "name": "",
          "type": "address"
        }
      ],
      "stateMutability": "view",
      "type": "function"
    },
    {
      "inputs": [
        {
          "internalType": "address",
          "name": "newOwner",
          "type": "address"
        }
      ],
      "name": "transferOwnership",
      "outputs": [],
      "stateMutability": "nonpayable",
      "type": "function"
    },
    {
      "inputs": [
        {
          "internalType": "address",
          "name": "follower",
          "type": "address"
        },
        {
          "internalType": "address",
          "name": "leader",
          "type": "address"
        }
      ],
      "name": "vaultId",
      "outputs": [
        {
          "internalType": "bytes32",
          "name": "",
          "type": "bytes32"
        }
      ],
      "stateMutability": "pure",
      "type": "function"
    },
    {
      "inputs": [
        {
          "internalType": "bytes32",
          "name": "",
          "type": "bytes32"
        },
        {
          "internalType": "uint256",
          "name": "",
          "type": "uint256"
        }
      ],
      "name": "vaultPositions",
      "outputs": [
        {
          "internalType": "bytes32",
          "name": "",
          "type": "bytes32"
        }
      ],
      "stateMutability": "view",
      "type": "function"
    },
    {
      "inputs": [
        {
          "internalType": "bytes32",
          "name": "",
          "type": "bytes32"
        }
      ],
      "name": "vaults",
      "outputs": [
        {
          "internalType": "address",
          "name": "follower",
          "type": "address"
        },
        {
          "internalType": "address",
          "name": "leader",
          "type": "address"
        },
        {
          "internalType": "uint256",
          "name": "ausdLocked",
          "type": "uint256"
        },
        {
          "internalType": "uint256",
          "name": "ausdAllocated",
          "type": "uint256"
        },
        {
          "internalType": "uint8",
          "name": "riskLevel",
          "type": "uint8"
        },
        {
          "internalType": "uint8",
          "name": "maxPerTradePct",
          "type": "uint8"
        },
        {
          "internalType": "enum VaultManager.VaultStatus",
          "name": "status",
          "type": "uint8"
        },
        {
          "components": [
            {
              "internalType": "uint16",
              "name": "slippageBps",
              "type": "uint16"
            },
            {
              "internalType": "uint256",
              "name": "minLeaderTradeUsd",
              "type": "uint256"
            },
            {
              "internalType": "uint256",
              "name": "maxLeaderTradeUsd",
              "type": "uint256"
            },
            {
              "internalType": "uint256",
              "name": "minAllocUsd",
              "type": "uint256"
            },
            {
              "internalType": "uint256",
              "name": "maxAllocUsd",
              "type": "uint256"
            }
          ],
          "internalType": "struct VaultManager.VaultLimits",
          "name": "limits",
          "type": "tuple"
        }
      ],
      "stateMutability": "view",
      "type": "function"
    },
    {
      "inputs": [
        {
          "internalType": "address",
          "name": "leader",
          "type": "address"
        }
      ],
      "name": "withdraw",
      "outputs": [],
      "stateMutability": "nonpayable",
      "type": "function"
    }
  ],
  "bytecode": "0x60a034620000fe57601f6200379438819003918201601f19168301916001600160401b038311848410176200010257808492602094604052833981010312620000fe57516001600160a01b038116808203620000fe5715620000b9576080525f80546001600160a01b0319163317905560405161367d908162000117823960805181818161054001528181610f230152818161155d0152818161193001528181611b5201528181611d160152818161284401526131bb0152f35b60405162461bcd60e51b815260206004820152601560248201527f564d3a207a65726f2061555344206164647265737300000000000000000000006044820152606490fd5b5f80fd5b634e487b7160e01b5f52604160045260245ffdfe6080806040526004361015610012575f80fd5b5f3560e01c9081624aca6e1461207c57508062e4768b14611f7b57806319530a8214610cdf5780631aac919714611e1b5780631fb3e24e14611dd257806320aff42814611d455780632fd7d1fd14611d015780633c4ce22114611cc8578063447fa8b714611c5b57806347e7ef2414611ad05780634a5010a01461184f5780634e6ec0e61461177b578063514ea4bf146116bb57806351cff8d9146114bc57806353084eff14611484578063572fcdcd146114025780635a2d6f5d146113e5578063692058c2146113bd578063748747e6146113545780637adbf973146112e75780637dc0d1d0146112bf5780637e16902314610e505780638da5cb5b14610e2957806392bc691414610d165780639530b30f14610cfa578063b8ff783d14610cdf578063bbd7edc514610b09578063bd44815f14610aeb578063c0bd6f9e14610a11578063c81e62e6146109cc578063cca23bf214610900578063d01ec4a6146108b7578063d48057421461088b578063de700da614610852578063e229cd7614610836578063e54a2ad51461046a578063e8134712146102f1578063f2fde38b146102705763f4fe2f94146101c7575f80fd5b3461026c5760e036600319011261026c576101e06120b2565b6101e86120c8565b6001600160a01b03919060443590838216820361026c5760c4359260ff8416840361026c576102318561024296831690813314918215610252575b508115610244575b506129ee565b60a435926084359260643592612ad5565b005b90506001541633145f61022b565b9091505f5260076020528060405f2054163314905f610223565b5f80fd5b3461026c57602036600319011261026c576102896120b2565b5f54906001600160a01b03906102a23383851614612457565b169081156102b9576001600160a01b031916175f55005b60405162461bcd60e51b815260206004820152601060248201526f564d3a207a65726f206164647265737360801b6044820152606490fd5b3461026c57604036600319011261026c5761031b61030d6120b2565b6103156120c8565b9061271c565b5f526020600660205260405f20905f905f908354915b82811061041d575061034283612677565b9261035060405194856122ca565b80845261035f601f1991612677565b013660208501375f935f5b838110610383576040518061037f87826121f1565b0390f35b61038d8183612167565b9054600391821b1c5f526004845260ff600960405f20015416600281101561040957156103be575b5060010161036a565b6103cb8284989398612167565b9054911b1c956103da82612ac7565b9686518310156103f5578460019360051b88010152906103b5565b634e487b7160e01b5f52603260045260245ffd5b634e487b7160e01b5f52602160045260245ffd5b6104278186612167565b90549060031b1c5f526004825260ff600960405f2001541660028110156104095715610456575b600101610331565b92610462600191612ac7565b93905061044e565b3461026c57602036600319011261026c57600435805f52600460205260405f209060ff6009830154169160029283811015610409576107f95760018060a01b038154168033149081156107db575b5080156107c7575b6104c9906129ee565b82546001600160a01b0316906104e0821515612a2f565b8381015493845f52600360205260405f209161050760018060a01b036003830154166130a8565b9360405194610515866122ae565b838652604036602088013761052986612752565b6001600160a01b038216905261053e8661275f565b7f00000000000000000000000000000000000000000000000000000000000000006001600160a01b0316905260058301546040805163d06ca61f60e01b815260048101839052602481019190915291905f838061059e604482018c61222c565b0381875afa91821561075f576127106105e36105c760209561061d975f916107ad575b5061275f565b5160076105dc8c61ffff928391015416612a6d565b1690612615565b60405163095ea7b360e01b81526001600160a01b0390971660048801526024870193909352909104939283919082905f9082906044820190565b03926001600160a01b03165af1801561075f5761077e575b5060018060a01b0383541660058301549061012c42019687421161076a575f80946106786040519a8b96879586946338ed173960e01b8652309260048701612a81565b03925af192831561075f576106f260036106bc6040967fb8afeb408acd10e29c21161f211b1e177a3ce18923199654650821f940cff38a985f9161073d575061275f565b5160048501906106e58254916106e06106d584836127e9565b998801938454612aba565b6124ec565b9055549201918254612aba565b905560018060a01b036003820154165f526008602052825f205490816007820155826008820155600160ff19600983015416176009820155600b4291015582519182526020820152a3005b61075991503d805f833e61075181836122ca565b81019061276f565b8b6105c1565b6040513d5f823e3d90fd5b634e487b7160e01b5f52601160045260245ffd5b61079f9060203d6020116107a6575b61079781836122ca565b810190612493565b5087610635565b503d61078d565b6107c191503d805f833e61075181836122ca565b8f6105c1565b506001546001600160a01b031633146104c0565b90505f52600760205260018060a01b0360405f2054163314846104b8565b60405162461bcd60e51b81526020600482015260156024820152742b269d103837b9b4ba34b7b7103737ba1037b832b760591b6044820152606490fd5b3461026c575f36600319011261026c5760206040516107d08152f35b3461026c57604036600319011261026c5761086e61030d6120b2565b5f526003602052602061088360405f206130d2565b604051908152f35b3461026c57604036600319011261026c5760206108836108a96120b2565b6108b16120c8565b90612801565b3461026c57604036600319011261026c576108d361030d6120b2565b5f52600360205261037f6108ec600560405f20016126c3565b60405191829160208352602083019061222c565b3461026c57602036600319011261026c576004355f52600360205261018060405f206109ca60018060a01b039161099283825416936001830154169160ff6002820154600383015460048401549161096160078560068801541696016122ec565b96604051998a5260208a015260408901526060880152818116608088015260081c1660a086015260c0850190612268565b805161ffff1660e084015260208101516101008401526040810151610120840152606081015161014084015260800151610160830152565bf35b3461026c57604036600319011261026c576024356004355f52600660205260405f20805482101561026c57602091610a0391612167565b90546040519160031b1c8152f35b3461026c57602036600319011261026c57610a33610a2d6120b2565b3361271c565b5f81815260036020526040902054610a55906001600160a01b031633146123a7565b805f52600360205260ff600660405f20015416600381101561040957610ab557805f526003602052600660405f2001600160ff198254161790557f7ca948eddccf3a65f738292fe09d47dd38a0616763f1a1a78715430c7a18a18b5f80a2005b60405162461bcd60e51b815260206004820152600e60248201526d564d3a206e6f742061637469766560901b6044820152606490fd5b3461026c57604036600319011261026c57602061088361030d6120b2565b3461026c57604036600319011261026c57610b226120b2565b610b2a6120c8565b90610b9e60405192610b3b84612275565b5f84526020925f848601525f60408601525f60608601525f60808601525f60a0860152606060c08601525f60e0860152610100948560405191610b7d83612292565b5f83525f878401525f60408401525f60608401525f6080840152015261271c565b5f526003815260405f2060405192610bb584612275565b60018060a01b0390818354168552816001840154169184860192835260028401546040870190815260038501549060608801918252600486015491608089019160ff8416835260ff60a08b019460081c168452610c14600589016126c3565b9460c08b0195865260ff60068a0154169860e08c01996003811015610409578a52600701610c41906122ec565b97878c019889528a826040519d8e9d8e525116908c0152511660408a01525160608901525160808801525160ff1660a08701525160ff1660c08601525160e085016101a090526101c08501610c959161222c565b9251908401610ca391612268565b51805161ffff16610120840152602081015161014084015260408101516101608401526060810151610180840152608001516101a08301520390f35b3461026c575f36600319011261026c576020604051600a8152f35b3461026c575f36600319011261026c57602060405161012c8152f35b3461026c57610d35610d2736612123565b929091610a2d841515612369565b91825f526003602052610d553360018060a01b0360405f205416146123a7565b5f838152600360205260408120600501905b828110610e0457505415610dab577f89216286babe3a315db35c8a44501c50b04e4af6db52228800178fa93abbcfa691610da66040519283928361240c565b0390a2005b60405162461bcd60e51b815260206004820152602b60248201527f564d3a2063616e6e6f742072656d6f766520616c6c20746f6b656e732066726f60448201526a1b48185b1b1bdddb1a5cdd60aa1b6064820152608490fd5b80610e23610e1d610e1860019487896123e8565b6123f8565b84612ffb565b01610d67565b3461026c575f36600319011261026c575f546040516001600160a01b039091168152602090f35b3461026c57610e5e3661217c565b9095939091906001600160a01b0385161515806112ac575b156112725760ff80911693600185101580611267575b610e95906124f9565b169560018710158061125c575b610eab9061253a565b610eb6811515612579565b610ec18615156125d6565b610eca83612e83565b610ed4853361271c565b5f818152600360205260409020549097906001600160a01b0316611217576040516323b872dd60e01b8152336004820152306024820152604481018890526020816064815f6001600160a01b037f0000000000000000000000000000000000000000000000000000000000000000165af1801561075f57610f5c915f916111f8575b506124ab565b60405194610f6986612275565b3386526001600160a01b0387166020870152604086018890525f6060870152608086015260a0850152610f9b81612677565b91610fa960405193846122ca565b8183526020830190368360051b82011161026c5780915b8360051b820183106111e0575050505060c08301525f60e083015260a08136031261026c5760405190610ff282612292565b61ffff81351681350361026c578060809135835260208101356020840152604081013560408401526060810135606084015201356080820152610100820152835f52600360205260405f209060018060a01b038151166001600160601b0360a01b9081845416178355600183019060018060a01b03602084015116908254161790556040810151600283015560608101516003830155600482016110c060ff6080840151169160ff19928382541617815560ff60a08501511661ff0082549160081b169061ff001916179055565b6005830160c08301519081519167ffffffffffffffff83116111cc576020906110e98484612628565b01905f5260205f205f5b8381106111af5750505050600683019160e081015192600384101561040957600b9360ff6080948354169116179055610100600785019101519061ffff82511661ffff1982541617905560208101516008850155604081015160098501556060810151600a8501550151910155335f5260056020526111758360405f2061268f565b6040519182526001600160a01b03169033907f6195d111f124dc39cb1ab083f9f1b6664e415bf60b71499b3a4b24cf07c337a890602090a4005b82516001600160a01b0316818301556020909201916001016110f3565b634e487b7160e01b5f52604160045260245ffd5b602080916111ed856120de565b815201920191610fc0565b611211915060203d6020116107a65761079781836122ca565b8a610f56565b60405162461bcd60e51b815260206004820152601860248201527f564d3a207661756c7420616c72656164792065786973747300000000000000006044820152606490fd5b506064871115610ea2565b50600a851115610e8c565b60405162461bcd60e51b81526020600482015260126024820152712b269d1034b73b30b634b2103632b0b232b960711b6044820152606490fd5b506001600160a01b038516331415610e76565b3461026c575f36600319011261026c576001546040516001600160a01b039091168152602090f35b3461026c57602036600319011261026c576113006120b2565b5f546001600160a01b0391906113199083163314612457565b16806001600160601b0360a01b60015416176001557f3f32684a32a11dabdbb8c0177de80aa3ae36a004d75210335b49e544e48cd0aa5f80a2005b3461026c57602036600319011261026c5761136d6120b2565b335f81815260076020526040812080546001600160a01b0319166001600160a01b0390941693841790557f50697e88bd427923002f5d3844f352091c05c0c9c3b69e43830863d2224631739080a3005b3461026c575f36600319011261026c576002546040516001600160a01b039091168152602090f35b3461026c575f36600319011261026c576020604051620f42408152f35b3461026c5760208060031936011261026c576001600160a01b036114246120b2565b165f52600560205260405f20906040519081602084549182815201935f5260205f20915f905b82821061146d5761037f85611461818903826122ca565b604051918291826121f1565b83548652948501946001938401939091019061144a565b3461026c57602036600319011261026c576001600160a01b036114a56120b2565b165f526008602052602060405f2054604051908152f35b3461026c5760208060031936011261026c576114d9610a2d6120b2565b90815f526003815260405f2060018060a01b036114fa3382845416146123a7565b6006820180549260ff841660038110156104095760021461168157600381015461163c57600290810180545f9182905560ff199590951690911790915560405163a9059cbb60e01b815233600482015260248101849052918491839160449183917f0000000000000000000000000000000000000000000000000000000000000000165af190811561075f575f9161161f575b50156115e45782917f1de10dc7adf633383767e576a9953d1b3c4f31a05c1635d7656d25604aca6b1f91604051908152a27fd06ef1be920eaf099a4e446ec48846abae39f5eb6b0877fea0913a68731af5515f80a2005b60405162461bcd60e51b815260048101839052601360248201527215934e881dda5d1a191c985dc819985a5b1959606a1b6044820152606490fd5b6116369150833d85116107a65761079781836122ca565b8461158d565b60405162461bcd60e51b815260048101869052601e60248201527f564d3a20636c6f7365206f70656e20706f736974696f6e7320666972737400006044820152606490fd5b60405162461bcd60e51b815260048101869052601260248201527115934e88185b1c9958591e4818db1bdcd95960721b6044820152606490fd5b3461026c57602036600319011261026c576004355f52600460205260405f2060018060a01b0390818154169082600182015416906002810154936003820154166004820154600583015460068401549060078501549260088601549460ff60098801541699600b600a890154980154986040519a8b5260208b015260408a01526060890152608088015260a087015260c086015260e085015261010084015260028410156104095761018093610120840152610140830152610160820152f35b3461026c57602036600319011261026c57611797610a2d6120b2565b5f818152600360205260409020546117b9906001600160a01b031633146123a7565b805f52600360205260ff600660405f2001541660038110156104095760010361181957805f526003602052600660405f200160ff1981541690557fa7b437a7c0be1eaaad481743f822acf86d00e9707a0c18a609f0e3ad97370ba85f80a2005b60405162461bcd60e51b815260206004820152600e60248201526d15934e881b9bdd081c185d5cd95960921b6044820152606490fd5b3461026c5760ff61185f3661217c565b969091939592951695600195600188101580611ac5575b61187f906124f9565b61189860ff821660018110159081611ab9575b5061253a565b6118a3831515612579565b6118ae8615156125d6565b6118b782612e83565b6118c1843361271c565b97885f526020976003895260405f209460018060a01b03976118e7338a895416146123a7565b600687019460ff865416600381101561040957600203611a83576040516323b872dd60e01b8152336004820152306024820152604481018c9052908c828c815f816064810103927f0000000000000000000000000000000000000000000000000000000000000000165af191821561075f576119a192611970918f5f92611a66575b50506124ab565b8b60028a01555f60038a01556004890160ff1996878254161781559061ff0082549160081b169061ff001916179055565b600587019067ffffffffffffffff83116111cc576119bf8383612628565b905f528a5f205f5b838110611a4d5750505050507fde9d4af6dc6156415163633265210b1348683a9a7e9b955616130ce9d6c58cb29594939282608092600b94541690556007840161ffff611a1383612668565b1661ffff19825416179055888101356008850155604081013560098501556060810135600a850155013591015560405193845216923392a4005b84908d611a59856123f8565b94019381840155016119c7565b611a7c9250803d106107a65761079781836122ca565b5f8f611969565b60405162461bcd60e51b8152600481018d9052600e60248201526d15934e881b9bdd0818db1bdcd95960921b6044820152606490fd5b6064915011158a611892565b50600a881115611876565b3461026c57604036600319011261026c57611ae96120b2565b611af6602435913361271c565b90815f5260206003815260ff600660405f20015416600381101561040957600214611c24578115611bee576040516323b872dd60e01b8152336004820152306024820152604481018390529181836064815f6001600160a01b037f0000000000000000000000000000000000000000000000000000000000000000165af192831561075f577ff4d5f4313db9d90750b55863740862117f1a26005f470df515d532580be167b293611bad915f91611bd157506124ab565b835f5260038252600260405f2001611bc68282546124ec565b9055604051908152a2005b611be89150843d86116107a65761079781836122ca565b86610f56565b6064906040519062461bcd60e51b82526004820152600f60248201526e15934e881e995c9bc8185b5bdd5b9d608a1b6044820152fd5b6064906040519062461bcd60e51b82526004820152601060248201526f15934e881d985d5b1d0818db1bdcd95960821b6044820152fd5b3461026c57602036600319011261026c57611c746120b2565b5f546001600160a01b039190611c8d9083163314612457565b16806001600160601b0360a01b60025416176002557f2a5aa8e2a11a8c03ede8d505c58640f635c8c77b57990c0b704b45e9a53d267b5f80a2005b3461026c57602036600319011261026c5760206001600160a01b0380611cec6120b2565b165f526007825260405f205416604051908152f35b3461026c575f36600319011261026c576040517f00000000000000000000000000000000000000000000000000000000000000006001600160a01b03168152602090f35b3461026c57604036600319011261026c57611d5e6120b2565b611d666120c8565b9060018060a01b038091611d7e825f54163314612457565b1690611d8b82151561232c565b815f52600960205260405f20921691826001600160601b0360a01b8254161790557f85920d35e6c72f6b2affffa04298b0cecfeba86e4a9f407df661f1cb8ab5e6175f80a3005b3461026c57604036600319011261026c57611deb6120b2565b6001600160a01b03165f9081526005602052604090208054602435919082101561026c57602091610a0391612167565b3461026c57611e3b611e2c36612123565b91610a2d839492941515612369565b90815f52602092600360205260018060a01b03611e5f338260405f205416146123a7565b5f84815260036020526040812060050195905b848110611eac57857f6daa1ff9696b2f02619a3f88b4b180ef2a65d070354484a2689f745bd640b7648686610da66040519283928361240c565b82611ebb610e188388886123e8565b1615611f3d57611ed8611ed2610e188388886123e8565b88612e3a565b15611ee6575b600101611e72565b611ef4610e188287876123e8565b908754600160401b8110156111cc57600192611f188285611f3694018c558b612167565b90919060018060a01b038084549260031b9316831b921b1916179055565b9050611ede565b60405162461bcd60e51b8152600481018390526016602482015275564d3a207a65726f20746f6b656e206164647265737360501b6044820152606490fd5b3461026c57604036600319011261026c57611f946120b2565b600154602435916001600160a01b0391821633148015612070575b1561203a571690611fc182151561232c565b80156120015760207f0d86730737b142fc160892fa8a0f2db687a92a0e294d1ad70624cf5acef03b8491835f52600882528060405f2055604051908152a2005b60405162461bcd60e51b8152602060048201526011602482015270564d3a20696e76616c696420707269636560781b6044820152606490fd5b60405162461bcd60e51b815260206004820152600e60248201526d564d3a206e6f74206f7261636c6560901b6044820152606490fd5b50815f54163314611faf565b3461026c57602036600319011261026c576020906001600160a01b03806120a16120b2565b165f526009835260405f2054168152f35b600435906001600160a01b038216820361026c57565b602435906001600160a01b038216820361026c57565b35906001600160a01b038216820361026c57565b9181601f8401121561026c5782359167ffffffffffffffff831161026c576020808501948460051b01011161026c57565b90604060031983011261026c576004356001600160a01b038116810361026c57916024359067ffffffffffffffff821161026c57612163916004016120f2565b9091565b80548210156103f5575f5260205f2001905f90565b61014060031982011261026c576004356001600160a01b038116810361026c57916024359160443560ff8116810361026c579160643560ff8116810361026c57916084359167ffffffffffffffff831161026c576121df8260a0946004016120f2565b9093909260a319011261026c5760a490565b60209060206040818301928281528551809452019301915f5b828110612218575050505090565b83518552938101939281019260010161220a565b9081518082526020808093019301915f5b82811061224b575050505090565b83516001600160a01b03168552938101939281019260010161223d565b9060038210156104095752565b610120810190811067ffffffffffffffff8211176111cc57604052565b60a0810190811067ffffffffffffffff8211176111cc57604052565b6060810190811067ffffffffffffffff8211176111cc57604052565b90601f8019910116810190811067ffffffffffffffff8211176111cc57604052565b906040516122f981612292565b60806004829461ffff81541684526001810154602085015260028101546040850152600381015460608501520154910152565b1561233357565b60405162461bcd60e51b815260206004820152600e60248201526d2b269d103d32b937903a37b5b2b760911b6044820152606490fd5b1561237057565b60405162461bcd60e51b815260206004820152600f60248201526e564d3a20656d70747920617272617960881b6044820152606490fd5b156123ae57565b60405162461bcd60e51b815260206004820152601260248201527115934e881b9bdd081e5bdd5c881d985d5b1d60721b6044820152606490fd5b91908110156103f55760051b0190565b356001600160a01b038116810361026c5790565b90916040602092826020820160208352520192915f5b828110612430575050505090565b909192938280600192838060a01b03612448896120de565b16815201950193929101612422565b1561245e57565b60405162461bcd60e51b815260206004820152600d60248201526c2b269d103737ba1037bbb732b960991b6044820152606490fd5b9081602091031261026c5751801515810361026c5790565b156124b257565b60405162461bcd60e51b815260206004820152601260248201527115934e8819195c1bdcda5d0819985a5b195960721b6044820152606490fd5b9190820180921161076a57565b1561250057565b60405162461bcd60e51b81526020600482015260126024820152710564d3a207269736b4c6576656c20312d31360741b6044820152606490fd5b1561254157565b60405162461bcd60e51b815260206004820152601060248201526f0564d3a206d617850637420312d3130360841b6044820152606490fd5b1561258057565b60405162461bcd60e51b815260206004820152602860248201527f564d3a20616c6c6f776c69737420656d7074792c206e6f207472616465732077604482015267696c6c20636f707960c01b6064820152608490fd5b156125dd57565b60405162461bcd60e51b815260206004820152601060248201526f15934e881e995c9bc819195c1bdcda5d60821b6044820152606490fd5b8181029291811591840414171561076a57565b90600160401b81116111cc5781549181815582821061264657505050565b5f5260205f2091820191015b81811061265d575050565b5f8155600101612652565b3561ffff8116810361026c5790565b67ffffffffffffffff81116111cc5760051b60200190565b8054600160401b8110156111cc576126ac91600182018155612167565b819291549060031b91821b915f19901b1916179055565b90604051918281549182825260209260208301915f5260205f20935f905b8282106126f9575050506126f7925003836122ca565b565b85546001600160a01b0316845260019586019588955093810193909101906126e1565b6040519060208201926001600160601b0319809260601b16845260601b1660348201526028815261274c816122ae565b51902090565b8051156103f55760200190565b8051600110156103f55760400190565b602090818184031261026c5780519067ffffffffffffffff821161026c57019180601f8401121561026c5782516127a581612677565b936127b360405195866122ca565b818552838086019260051b82010192831161026c578301905b8282106127da575050505090565b815181529083019083016127cc565b81810392915f13801582851316918412161761076a57565b600280545f949391926001600160a01b03918216929083156129e4579061282b919492939461271c565b5f526020916006602052604092835f20925f95845494847f000000000000000000000000000000000000000000000000000000000000000016905b86891061287857505050505050505050565b90919293949596979961288b8b83612167565b9054600391821b1c5f526004908188528a5f209060ff600983015416888110156129d157158015906129c5575b6129b9579061292c5f896128e88f96958e90888f8151956128d8876122ae565b86523690860137860154166130a8565b8d6128f283612752565b91169052886129008261275f565b5260058401548651938492839263d06ca61f60e01b84528884015260249889840152604483019061222c565b03818b5afa9081156129af5761294e612958939285925f91612995575061275f565b51910154906127e9565b925f84820194851291129080158216911516176129845750506001909a5b019796959493929190612866565b601190634e487b7160e01b5f52525ffd5b6129a991503d805f833e61075181836122ca565b5f6105c1565b8d513d5f823e3d90fd5b50505099600190612976565b506005820154156128b8565b602184634e487b7160e01b5f525260245ffd5b505f955050505050565b156129f557565b60405162461bcd60e51b815260206004820152601260248201527115934e881b9bdd08185d5d1a1bdc9a5e995960721b6044820152606490fd5b15612a3657565b60405162461bcd60e51b815260206004820152600f60248201526e15934e8819195e081b9bdd081cd95d608a1b6044820152606490fd5b9061ffff8092166127100391821161076a57565b9192608093612aa692979695978452602084015260a0604084015260a083019061222c565b6001600160a01b0390951660608201520152565b9190820391821161076a57565b5f19811461076a5760010190565b90612ae491969592939661271c565b94855f5260209160038352604091825f209060ff600683015416600381101561040957612dff5761012c612b9a612b1c600b54612ac7565b9485600b558b867fc242abebbe8a335db4bf285fc9a63ef4e3cbb891d4664707d44ae79a4ac505b9868c612b91868d5193849388887f7d0d4a45b610c689953ac3d1df4e7739f7ba0e76107b191b9170d4eb27b90b4e5f80a36001600160a01b03168452602084015260408301526060820190565b0390a342612aba565b11612dc557612bac8660058401612e3a565b15612d805760088201548015159081612d76575b50612d2a5760098201548015159182612d20575b5050612cd557612be7620f4240916130d2565b1115612c8b57606460ff871611612c82575b8660ff8716917fac7c244f5a94874741bde286781fc342da57eb796ea3b4f271ba72c0b515b10584600a8510948151908152851588820152a3612c415750506126f7936130f7565b5f80516020613628833981519152945060609350741cd8dbdc994818995b1bddc81d1a1c995cda1bdb19605a1b9192506015815193808552840152820152a2565b60649550612bf9565b505f805160206136288339815191529450606093507f696e73756666696369656e7420667265652062616c616e6365000000000000009192506019815193808552840152820152a2565b50505f805160206136288339815191529450606093507f6c65616465722074726164652061626f7665206d6178696d756d000000000000919250601a815193808552840152820152a2565b1190505f80612bd4565b5050505f805160206136288339815191529450606093507f6c65616465722074726164652062656c6f77206d696e696d756d000000000000919250601a815193808552840152820152a2565b905081105f612bc0565b5050505f80516020613628833981519152945060609350751d1bdad95b881b9bdd081a5b88185b1b1bdddb1a5cdd60521b9192506016815193808552840152820152a2565b5050505f805160206136288339815191529450606093506a7374616c6520747261646560a81b919250600b815193808552840152820152a2565b835162461bcd60e51b8152600481018690526014602482015273564d3a207661756c74206e6f742061637469766560601b6044820152606490fd5b905f5b8254811015612e7c57612e508184612167565b905460039190911b1c6001600160a01b0390811690831614612e7457600101612e3d565b505050600190565b5050505f90565b61ffff600a81612e9284612668565b1610159081612fe4575b5015612f9f5760208101358015908115612f92575b8115612f83575b5015612f3e5760608101358015918215612f31575b8215612f22575b505015612edd57565b60405162461bcd60e51b815260206004820152601760248201527f564d3a20616c6c6f632072616e676520696e76616c69640000000000000000006044820152606490fd5b60800135101590505f80612ed4565b6080810135159250612ecd565b60405162461bcd60e51b815260206004820152601e60248201527f564d3a206c65616465722074726164652072616e676520696e76616c696400006044820152606490fd5b9050604082013510155f612eb8565b6040830135159150612eb1565b60405162461bcd60e51b815260206004820152601760248201527f564d3a20736c6970706167654270732031302d323030300000000000000000006044820152606490fd5b6107d09150612ff283612668565b1611155f612e9c565b5f915b815492838110156130a2576130138184612167565b90546003956001600160a01b0392909190871b1c82168483161461303d5750506001019250612ffe565b9092505f199182820191821161076a57611f188461305e61306c9488612167565b905490891b1c169186612167565b8254801561308e5701926130808484612167565b81939154921b1b1916905555565b634e487b7160e01b5f52603160045260245ffd5b50505050565b6001600160a01b038181165f90815260096020526040902054169081156130cd575090565b905090565b6002600382015491015490818110156130f1576130ee91612aba565b90565b50505f90565b5f8181526003602052604090206002546001600160a01b0316949193919290613121861515612a2f565b61312a816130d2565b956064613146600284015460ff600486015460081c1690612615565b04878111613620575b61315f60649160ff881690612615565b0496600a830154620f42408082115f1461361957505b88106135ca578088116135c2575b50600b820154801515806135b9575b6135b1575b506040516131a4816122ae565b6002815260403660208301376131b981612752565b7f00000000000000000000000000000000000000000000000000000000000000006001600160a01b0316908190526131f0856130a8565b6131f98361275f565b6001600160a01b0390911690526040805163d06ca61f60e01b8152600481018b905260248101919091525f8180613233604482018761222c565b0381875afa801561075f576132a99261271061326f61325c8e946020965f91612995575061275f565b5161ffff6105dc8160078d015416612a6d565b60405163095ea7b360e01b81526001600160a01b0390981660048901526024880193909352909104949283919082905f9082906044820190565b03925af1801561075f57613592575b506002544261012c810193916001600160a01b031690841061076a575f92838b936132fb604051978896879586946338ed173960e01b8652309260048701612a81565b03925af1801561075f57613315915f91612995575061275f565b516001600160a01b0383165f908152600860205260409020549093811561358a5750935b613344600a54612ac7565b80600a5560405160208101918883524260408301526001600160601b03198660601b16606083015260748201526074815261337e81612292565b5190208254600184015460405196916001600160a01b03918216911667ffffffffffffffff6101808901908111908911176111cc5761018088016040528752602087015287604087015260018060a01b038516606087015288608087015260a08601528560c08601525f60e08601525f6101008601525f610120860152426101408601525f610160860152805f52600460205260405f209060018060a01b038651166001600160601b0360a01b90818454161783556001830160018060a01b036020890151168282541617905560408701516002840155600383019060018060a01b03606089015116908254161790556080860151600483015560a0860151600583015560c0860151600683015560e086015160078301556101008601516008830155600982016101208701516002811015610409577f0fac05f01c50ae793f1a1fb2912053546d62525ac2dfad4adbc641f37c09bf8a98600360ff978c96600b61016060409d7fb1eefddb5e15079c801481dd2d9558f62b8d6e4ba1d15d3e8da341e1d07ccd189861356f988e80198354169116179055610140810151600a8501550151910155865f52600660205261353a868c5f2061268f565b016135468d82546124ec565b905588516001600160a01b0389168152602081018d905260408101919091529081906060820190565b0390a383519687521660208601526001600160a01b031693a3565b905093613339565b6135aa9060203d6020116107a65761079781836122ca565b505f6132b8565b96505f613197565b50808811613192565b96505f613183565b50505050505090505f80516020613628833981519152606060405160208152601860208201527f616c6c6f636174696f6e2062656c6f77206d696e696d756d00000000000000006040820152a2565b9050613175565b508661314f56fe161609ed0659583c4124f93794aade207fa9fe3124c4ee08cb05a724f0e760caa2646970667358221220c708551feb355563895d9346442a4d4f2970d3b317a2ee5854937d93e33eb89664736f6c63430008180033",
  "linkReferences": {},
  "deployedLinkReferences": {}
}